:100000000C946D000C9495000C9495000C94950044
:100010000C9495000C9495000C9495000C9495000C
:100020000C9495000C9495000C9495000C949500FC
:100030000C9495000C9495000C9495000C949500EC
:100040000C94A4070C9495000C9495000C949500C6
:100050000C9495000C9495000C9495000C949500CC
:100060000C94EE070C94950031333A34363A31361D
:100070000044656320323520323032350000000004
:1000800000240027002A0000000000250028002B83
:1000900000000000002300260029000404040404DA
:1000A0000404040202020202020303030303030125
:1000B00002040810204080010204081020010204FC
:1000C00008102000000008000201000003040700DF
:1000D00000000000000000001A0911241FBECFEF2D
:1000E000D8E0DEBFCDBF22E0A2EDB1E001C01D929D
:1000F000A53CB207E1F711E0A0E0B1E0E4E3FEE1E6
:1001000002C005900D92A23DB107D9F710E0CDE6EF
:10011000D0E004C02197FE010E94ED0DCC36D1073E
:10012000C9F70E943B090C94180F0C940000089525
:100130000895833081F028F4813099F08230A9F05D
:1001400008958730A9F08830C9F08430B1F48091E7
:1001500080008F7D03C0809180008F778093800026
:10016000089584B58F7784BD089584B58F7DFBCFC6
:100170008091B0008F778093B00008958091B00097
:100180008F7DF9CFCF93DF93282F30E0F901ED5326
:10019000FF4F8491F901E155FF4FD491F901E556E4
:1001A000FF4FC491CC23A1F081110E949900EC2F44
:1001B000F0E0EE0FFF1FEF56FF4FA591B491EC91C9
:1001C000ED2381E090E009F480E0DF91CF91089584
:1001D00080E090E0FACF1F93CF93DF93282F30E099
:1001E000F901ED53FF4F8491F901E155FF4FD4918F
:1001F000F901E556FF4FC491CC23A9F0162F8111C8
:100200000E949900EC2FF0E0EE0FFF1FE957FF4F1F
:10021000A591B4918FB7F894EC91111108C0D095C5
:10022000DE23DC938FBFDF91CF911F910895DE2BEA
:10023000F8CFCF93DF9390E0FC01E155FF4F24917D
:1002400085569F4FFC0184918823D1F090E0880F60
:10025000991FFC01E358FF4FA591B491FC01E957A8
:10026000FF4FC591D491623071F49FB7F8943C91DF
:10027000822F809583238C93E8812E2B28839FBF28
:10028000DF91CF9108958FB7F894EC912E2B2C939A
:100290008FBFF6CF3FB7F89480912C0290912D023A
:1002A000A0912E02B0912F0226B5A89B05C02F3F2A
:1002B00019F00196A11DB11D3FBFBA2FA92F982F8C
:1002C0008827BC01CD01620F711D811D911D42E087
:1002D000660F771F881F991F4A95D1F708958F924F
:1002E0009F92AF92BF92CF92DF92EF92FF924B011B
:1002F0005C010E944A016B017C010E944A016C1959
:100300007D098E099F09683E734081059105A8F318
:1003100021E0821A9108A108B10888EEC80E83E096
:10032000D81EE11CF11C81149104A104B10429F729
:10033000FF90EF90DF90CF90BF90AF909F908F9005
:100340000895AF92BF92CF92DF92EF92FF920F93F8
:100350001F93CF93DF936C017B018B01040F151F5B
:10036000EB015E01AE18BF08C017D10759F06991C3
:10037000D601ED91FC910190F081E02DC601099527
:10038000892B79F7C501DF91CF911F910F91FF90D4
:10039000EF90DF90CF90BF90AF9008950895209197
:1003A000F301260F3327331F21323105ECF420915E
:1003B0007E02FC0190E080E0243069F082E0089544
:1003C000A091F3012191AC014D525E4FA40FB52FC6
:1003D000B11D2C930196861798F38091F301680F55
:1003E0006093F30180E0089581E0089510927E0209
:1003F00081E080937D021092580261E082E10E94C8
:10040000EB0061E083E10E94EB00E9EBF0E080812A
:100410008E7F808380818D7F808388E48093B80085
:1004200085E48093BC000895109237021092360242
:10043000109285021092A7020E94F60187E990E0CF
:10044000909333028093320288E990E090933102D6
:10045000809330020895CF93DF9391E09093D2017F
:100460008823B9F0C091B800D091BA008091BC0047
:100470008A7B8093BC0060E082E10E94EB0060E038
:1004800083E10E94EB000E94F601D093BA00C09372
:10049000B800DF91CF9108958F929F92AF92BF9253
:1004A000CF92DF92EF92FF920F931F93CF93DF9340
:1004B000D091A702D13208F0D7C0182FC091A60260
:1004C0000E944A016B017C0180917E0281116BC008
:1004D00082E080937E0210937D028FEF80937C02F6
:1004E00010927B02D0937A02A6E8B2E0EAE5F2E04D
:1004F00080E0D81391C01092590280915902CC0F1C
:10050000C82BC093590280915802813009F088C0ED
:10051000109258020E944A016B017C01809159029D
:100520008093BB008091800290918102A091820211
:10053000B0918302892B8A2B8B2BA1F00E944A0158
:1005400000918002109181022091820230918302F9
:100550006C197D098E099F090617170728073907A7
:1005600008F442C08091BC0083FDD8CF85EC809315
:10057000BC000E944A016B017C0180917E028230A6
:1005800009F450C080917C028F3F09F46FC08091C4
:100590007C02803209F46CC080917C02803309F4C3
:1005A00069C084E026C08091800290918102A09170
:1005B0008202B0918302892B8A2B8B2B09F484CF82
:1005C0000E944A018090800290908102A090820255
:1005D000B09083026C197D098E099F0986169706D3
:1005E000A806B90608F070CF80917F020E942B0206
:1005F00085E0109285021092A70210928402DF918A
:10060000CF911F910F91FF90EF90DF90CF90BF900F
:10061000AF909F908F9008959D9191938F5F69CF38
:1006200085EEA5CF8091800290918102A0918202F7
:10063000B0918302892B8A2B8B2B09F49ECF0E94C9
:100640004A01009180021091810220918202309132
:1006500083026C197D098E099F0906171707280761
:10066000390708F08ACFC0CF81E0C3CF80E0C1CF87
:1006700082E0BFCF83E0BDCF1F93CF93DF93EA012A
:10068000122FDC0111968D919C91DC01ED91FC9172
:100690000280F381E02D0995C817D90729F4812F2D
:1006A0000E944C0291E0811190E0892FDF91CF915F
:1006B0001F910895CF93DF93EC018B818823A1F0E4
:1006C000888191E0909384028093A6021092850223
:1006D0001092A70281E00E944C0291E0811190E00B
:1006E000892FDF91CF9108950E94140281E08B83BE
:1006F000CE010E945A03982F8111E2CFF1CF0895C5
:10070000E091370280913602E81730F4F0E0E85CBF
:10071000FD4F808190E008958FEF9FEF08959091B5
:100720003702809136022FEF3FEF981748F4E92FF8
:10073000F0E0E85CFD4F208130E09F5F909337024E
:10074000C90108958091360290913702891B990B57
:100750000895CF92DF92EF92FF920F931F93CF9362
:10076000DF937C01CB018A0120918402222389F04E
:10077000EB016B01C40ED51ECC15DD0569F0699146
:10078000D701ED91FC910190F081E02DC701099511
:10079000F3CF642F0E94CF01C801DF91CF911F9149
:1007A0000F91FF90EF90DF90CF900895CF93DF935C
:1007B0001F92CDB7DEB76983209184022223F9F01E
:1007C0002091A702203258F021E030E0FC01338371
:1007D000228390E080E00F90DF91CF910895809187
:1007E0008502E82FF0E0EA57FD4F998190838F5FF3
:1007F000809385028093A70281E090E0ECCF61E0D6
:10080000CE0101960E94CF01F7CFFC01248131E097
:10081000309384022093A602109285021092A702C0
:100820008485682B88EA92E00E94D60381E00C94CC
:100830004C0290E080E008952F923F924F925F9299
:100840006F927F928F929F92AF92BF92CF92DF92E0
:10085000EF92FF920F931F93CF93DF935C011B01E5
:100860006A01F12CE12CD50114968D919C918601A1
:100870000E191F098017910708F48C01F501D0812A
:100880000E944A012B013C0180917E02811172C0BD
:10089000C02F013208F0C0E2F1E0F0937E0221E0C7
:1008A000C601801B910BE816F90608F420E020939E
:1008B0007D028FEF80937C0210927B028C0F8093DD
:1008C0007A02A1E0A093590280915902DD0FD82B42
:1008D000D093590280915802813009F090C0109253
:1008E00058020E944A012B013C01809159028093D9
:1008F000BB008091800290918102A0918202B09110
:100900008302892B8A2B8B2BA1F00E944A01209114
:1009100080023091810240918202509183026419D9
:10092000750986099709261737074807590708F4F4
:1009300042C08091BC0083FDD8CFB5ECB093BC0021
:100940000E944A012B013C0180917E02813009F412
:100950005AC080917B028C1710F4C0917B02AAE5EB
:10096000B2E0E8E3F2E080E08C1751F19D919193C1
:100970008F5FFACF8091800290918102A0918202D4
:10098000B0918302892B8A2B8B2B09F47DCF0E9497
:100990004A0120918002309181024091820250915F
:1009A00083026419750986099709261737074807CE
:1009B000590708F069CF80917F020E942B02C0E0A6
:1009C00010923702C0933602C017110609F057C0C3
:1009D00041018E0C9F1CE401CE01881999098017F2
:1009E000910798F5D50111968D919C91DC01ED91BF
:1009F000FC910284F385E02D09958993EDCFE5EE16
:100A0000E093BC009DCF8091800290918102A091E3
:100A10008202B0918302892B8A2B8B2B09F494CF0D
:100A20000E944A012091800230918102409182020D
:100A300050918302641975098609970926173707AB
:100A40004807590708F080CFB6CFE00EF11EEC142E
:100A5000FD0408F408CF81E0DF91CF911F910F9141
:100A6000FF90EF90DF90CF90BF90AF909F908F90CE
:100A70007F906F905F904F903F902F90089580E00F
:100A8000EBCF0F931F93CF93DF93CDB7DEB72897AC
:100A90000FB6F894DEBF0FBECDBFDC018E010F5F35
:100AA0001F4F86E0F80111928A95E9F715963C915F
:100AB00015972AE0832F622F0E94BF0D982F880F71
:100AC000890F880F830F8A8314963C911497832F84
:100AD0000E94BF0D982F880F890F880F830F8B837B
:100AE00013963C911397832F0E94BF0D982F880F68
:100AF000890F880F830F8C8312963C911297832F56
:100B00000E94BF0D982F880F890F880F830F8E8347
:100B100011963C911197832F0E94BF0D982F880F3B
:100B2000890F880F830F8F833C91832F0E94BF0D05
:100B3000982F880F890F880F830F88878091340240
:100B400090913502FC01248135812830310580F0F7
:100B5000208131E0309384022093A6021092850216
:100B60001092A70221E048E050E0B8010E943C0347
:100B700028960FB6F894DEBF0FBECDBFDF91CF91A0
:100B80001F910F910895EF92FF920F931F93CF93B0
:100B9000DF9300D000D000D01F92CDB7DEB78C011C
:100BA0001982E0903402F0903502D70114968D91AD
:100BB0009C911597892BE9F08C9191E09093840298
:100BC0008093A602109285021092A70220E041E0D5
:100BD00050E0BE016F5F7F4FC7010E943C03882336
:100BE00041F047E050E0BE016F5F7F4FC7010E94B8
:100BF0001C04E981EF77FA81FB804D815E818F8152
:100C0000282F30E094E0359527959A95E1F7922FBB
:100C1000990F990F291B220F280FD8012C93852F8C
:100C200090E024E0959587952A95E1F7982F990F04
:100C3000990F891B880F850F11968C931197642F3C
:100C400070E034E0759567953A95E1F7862F880F47
:100C5000880F681B660F640F12966C9312974F2DC6
:100C600050E064E0559547956A95E1F7842F880F29
:100C7000880F481B440F4F0D13964C9313972F2F3B
:100C800030E074E0359527957A95E1F7822F880F4B
:100C9000880F281B220F2F0F14962C9314978E2F3A
:100CA00090E0F4E095958795FA95E1F7982F990FE4
:100CB000990F891B880F8E0F15968C93C801279664
:100CC0000FB6F894DEBF0FBECDBFDF91CF911F915D
:100CD0000F91FF90EF9008950F931F93CF938C0186
:100CE000C62F0E9405046C2F6460C8010E94050491
:100CF0006C2F6B7FC8010E94050483EC90E0019784
:100D0000F1F7CF911F910F9108950F931F93CF93F8
:100D1000DF938C01D62FC42F607F642B0E946C065A
:100D200080E1D89FB00111246C2BC801DF91CF91D5
:100D30001F910F910C946C06CF93DF93CDB7DEB764
:100D400028970FB6F894DEBF0FBECDBF98E0E6E05F
:100D5000F1E0DE01119601900D929A95E1F79091E4
:100D6000BC02981708F48FEF90E0880F991F21E0DC
:100D700030E02C0F3D1F820F931FFC0160816068E3
:100D800040E084EB92E028960FB6F894DEBF0FBEE9
:100D9000CDBFDF91CF910C94850640E061E084EBFC
:100DA00092E00E9485068BE39FE10197F1F7809125
:100DB000BD02882319F080E00C949C06089541E060
:100DC0000E94850681E090E008958F929F92AF92F5
:100DD000BF920F931F93CF93DF93CDB7DEB7A19749
:100DE0000FB6F894DEBF0FBECDBF19A2423008F493
:100DF0004AE08E010F5D1F4F842E912CB12CA12C47
:100E0000A50194010E94CB0DE62FB901CA01EA3079
:100E100044F5E05DD801EE938D01232B242B252B87
:100E200079F790E080E0109769F0FD0101900020D3
:100E3000E9F73197AF014A1B5B0BBD0184EB92E0F0
:100E40000E94A101A1960FB6F894DEBF0FBECDBFE0
:100E5000DF91CF911F910F91BF90AF909F908F9096
:100E60000895E95CD7CFCF92DF92EF92FF926C01A9
:100E70008AE0C816D10434F441E060E384EB92E0E8
:100E80000E9485060D2C000CEE08FF084AE0C70101
:100E9000B601F7FE0EC041E06DE284EB92E00E94E5
:100EA000850666277727CB016C197D098E099F0976
:100EB0004AE0FF90EF90DF90CF900C94E506FC01A4
:100EC00001900020E9F73197AF01481B590BBC0195
:100ED00084EB92E00C94A10185ED8093BC0080919D
:100EE000800290918102A0918202B09183020796C4
:100EF000A11DB11D23E0B695A795979587952A95D5
:100F0000D1F72091BC0024FD03C010927E02089509
:100F1000409180025091810260918202709183021F
:100F2000452B462B472B69F30097A105B10541F0EE
:100F30002AE22A95F1F700C00197A109B109E1CF92
:100F400080917F020C942B021F920F920FB60F928A
:100F500011242F933F938F939F93AF93BF938091CF
:100F6000280290912902A0912A02B0912B0230917F
:100F7000270223E0230F2D3758F50196A11DB11D3F
:100F8000209327028093280290932902A0932A029B
:100F9000B0932B0280912C0290912D02A0912E02F1
:100FA000B0912F020196A11DB11D80932C02909348
:100FB0002D02A0932E02B0932F02BF91AF919F916B
:100FC0008F913F912F910F900FBE0F901F9018950A
:100FD00026E8230F0296A11DB11DD2CF1F920F92BA
:100FE0000FB60F9211242F933F934F935F936F93FC
:100FF0007F938F939F93AF93BF93EF93FF938091D2
:10100000B900887F803609F44AC0F0F5883209F4C7
:10101000A7C018F5803109F49BC0B8F4882309F4FF
:10102000F9C0883009F494C0FF91EF91BF91AF915E
:101030009F918F917F916F915F914F913F912F91F0
:101040000F900FBE0F901F901895883109F488C03B
:10105000803251F780937C0214C0803409F49DC023
:1010600040F48033B9F38833F9F680937C0285EC41
:10107000B0C0803509F485C0883509F496C088343D
:1010800099F60E946C07D0CF883909F48CC038F5E6
:10109000883729F050F4883611F0803729F683E03C
:1010A00080937E021092150257C0883809F47BC0E5
:1010B000803919F0803809F0B7CF8091150280325D
:1010C00008F071C0E091150281E08E0F8093150247
:1010D0008091BB00F0E0EB50FE4F80833DC0803B31
:1010E00039F0E0F4803A09F479C0883A09F09CCFED
:1010F00084E080937E021092F4011092F301E0915B
:101100003202F091330209958091F30181110FC0F1
:1011100081E08093F3011092D30109C0803C09F46F
:10112000A6CF883C09F4A3CF883B09F07DCFE0919E
:10113000F40181E08E0F8093F401F0E0ED52FE4F58
:1011400080818093BB009091F4018091F30129C0CC
:10115000809159028093BB0085EC8093BC0064CFE2
:1011600090917B0280917A02981758F5E0917B026A
:1011700081E08E0F80937B02F0E0E65AFD4F808184
:10118000E9CFE0917B0281E08E0F80937B0280911A
:10119000BB00F0E0E65AFD4F808390917B02809186
:1011A0007A029817C8F285E8D8CFE0917B0281E0F7
:1011B0008E0F80937B028091BB00F0E0E65AFD4FDA
:1011C000808380917D0281115CCF81E08093580201
:1011D00084EA8093BC0010927E0226CF85EC809337
:1011E000BC0010927E0280911502803230F4E091B2
:1011F0001502F0E0EB50FE4F10826091150270E096
:10120000E0913002F091310285EF91E00995109262
:1012100015020ACF10927C0234CFFC0190819053CA
:101220009A3008F090E0818180532AE0929F800DEF
:1012300011240895E8EAF2E01382128288EE93E026
:10124000A0E0B0E084839583A683B78382E191E038
:1012500091838083E4EBF2E01382128284E291E0D6
:1012600091838083118687E2848380E1828782E094
:10127000838714860895CF93DF93CDB7DEB7629747
:101280000FB6F894DEBF0FBECDBF789484B58260F0
:1012900084BD84B5816084BD85B5826085BD85B51A
:1012A000816085BD80916E00816080936E00109298
:1012B0008100809181008260809381008091810013
:1012C00081608093810080918000816080938000A4
:1012D0008091B10084608093B1008091B000816002
:1012E0008093B00080917A00846080937A0080912E
:1012F0007A00826080937A0080917A008160809386
:101300007A0080917A00806880937A001092C10000
:1013100062E082E00E94190162E083E00E9419010C
:1013200062E084E00E94190162E085E00E941901F8
:1013300061E087E00E94190161E087E00E94EB0014
:101340000E9414021092B9028091BF02823018F0FC
:1013500098E09093B9028093BC0262E370E080E071
:1013600090E00E946F016091C00284EB92E00E94C5
:10137000050468EE73E080E090E00E946F0160E396
:1013800084EB92E00E946C060BE416E4C80101971E
:10139000F1F760E384EB92E00E946C06C8010197CC
:1013A000F1F760E384EB92E00E946C0683E592E043
:1013B0000197F1F760E284EB92E00E946C06609185
:1013C000B902606240E084EB92E00E94850684E00E
:1013D0008093BA0240E06CE084EB92E00E948506C4
:1013E0000E94CD0682E08093BB0240E066E084EB81
:1013F00092E00E94850640E062E084EB92E00E9469
:1014000085068BE39FE10197F1F788E08093C002A6
:1014100060E084EB92E00E94050480913402909198
:101420003502009711F00E948F0E86E090E00E9436
:10143000F30D8C0188E6F801808388EA92E09283BC
:101440008183138280E290E0958384831093350238
:10145000009334020E941402FF24F394F801F382F3
:10146000C8010E945A03811105C08EE491E00E94D8
:101470005F07FFCF1A8A8091340290913502FC01F8
:1014800024813581232B89F02081F09284022093DE
:10149000A602109285021092A70221E041E050E0DE
:1014A000BE016E5E7F4F0E943C0341E050E0BE01F2
:1014B0006F5F7F4F80913402909135020E941C042F
:1014C000898190E0880F892F881F990B892B09F457
:1014D00055C04BE050E061E770E0CE0101960E94FC
:1014E000B60DCE010A960E940D098C87E981E15460
:1014F000E33120F50E2E000CFF0BEF57F54F0C9447
:10150000ED0DD30B9E0A9E0AE70B9E0AD10B9E0A95
:101510009E0A9E0A940A9E0A9E0ADA0BE50BE30BCA
:101520009E0A9E0A9E0AE10B8A81813609F435C122
:101530008B818E3609F033C186E08D87CE0105960A
:101540000E940D098E8748E050E068E670E0CE0109
:1015500001960E94B60DCE0101960E940D098F875B
:10156000CE0104960E940D09888BCE0107960E9439
:101570000D09898BCE010C960E94410524E0422E74
:10158000512C66246394712C03E010E04BE3E42EAD
:10159000F12C57E1C52ED12C82E0882E912C90E0C1
:1015A000A92E90E0B92E82E00E94C200409117025D
:1015B000509118026091190270911A02892B09F05A
:1015C00008C1452B462B472B99F42FB7F8948091EF
:1015D000280290912902A0912A02B0912B022FBFDC
:1015E0008093170290931802A0931902B0931A02E5
:1015F0002FB7F8948091280290912902A0912A0295
:10160000B0912B022FBF40911702509118026091A8
:10161000190270911A02841B950BA60BB70B813D22
:101620009740A105B10538F180911602811123C0C0
:101630008091240290912502892BE9F430901F02B9
:1016400081E0382630921F02809316020E94CD0658
:1016500080E00E949C068CE291E0311002C08DE394
:1016600091E00E945F0768EE73E080E090E00E94E6
:101670006F010E94CD0683E00E94C200892BE9F42D
:1016800080912402909125029C012D7F213031050B
:1016900009F015C1809122029091230201968831B0
:1016A00091050CF007C1909323028093220268EC0D
:1016B00070E080E090E00E946F0184E00E94C20030
:1016C000892BD9F480912402909125029C012D7FD1
:1016D0002130310509F010C180912202909123023E
:1016E000019797FD04C1909323028093220268EC36
:1016F00070E080E090E00E946F0185E00E94C200EF
:10170000892BB9F4CE010C960E94C3058091240266
:10171000909125028230910509F42BC108F003C194
:10172000019709F421C16CE271E080E090E00E9431
:101730006F0180912602882309F446C180E00E944F
:101740009C0689E791E00E945F0781E00E949C0669
:101750008AE891E00E945F0761E087E00E94EB0069
:1017600064E670E080E090E00E946F0160E087E056
:101770000E94EB0064E670E080E090E00E946F0160
:1017800062E370E080E090E00E946F01A114B10478
:1017900009F409CF0E940000FFCE81E0CECE87E0A1
:1017A000CCCE82E0CACE8B81823711F484E0C5CEE4
:1017B00088E0C3CE8B81823711F483E0BECE85E012
:1017C000BCCE89E0BACE8AE0B8CE8BE0B6CE8CE053
:1017D000B4CE452B462B472B09F44DCF80911602F2
:1017E000811128C02FB7F894809128029091290286
:1017F000A0912A02B0912B022FBF40911702509165
:1018000018026091190270911A02841B950BA60BA5
:10181000B70B883E9340A105B10560F48091260284
:10182000882399F01092260261E087E00E94EB0085
:101830000E94CD06109217021092180210921902FF
:1018400010921A021092160216CF0E94CD068091B5
:10185000240290912502009799F0039730F5109398
:10186000250200932402CE0101960E94C3058C81BB
:1018700090E090932302809322028D8190E010C02B
:10188000709225026092240280911D0290911E02A6
:10189000909323028093220280911B0290911C025C
:1018A0009093210280932002C5CF109225021092BE
:1018B0002402C0CF1092230210922202F8CE82306E
:1018C000910519F0049709F0F2CE809120029091D1
:1018D000210201968C3391052CF490932102809380
:1018E0002002E5CE1092210210922002E0CED0928A
:1018F0002302C0922202FBCE8230910519F0049798
:1019000009F0F5CE8091200290912102019797FD78
:1019100005C09093210280932002E9CEF09221022B
:10192000E0922002E4CE8330910509F448C0049788
:1019300009F0F9CE80912002909122022E853D85FA
:101940004C8549833A832B839C838D831E82CE01F1
:1019500001960E94410510922502109224020E94D5
:10196000CD0688E691E020C0909225028092240264
:10197000DACE809122029091230290931E028093EE
:101980001D02809120029091210290931C0280936D
:101990001B0281E080931F02109225021092240204
:1019A0000E94CD0687E591E00E945F0768EE73E034
:1019B00080E090E00E946F010E94CD06B4CE50926C
:1019C000250240922402AFCE8091240290912502FC
:1019D0008330910598F5019708F45BC080E00E9480
:1019E0009C0684EB91E00E945F0781E00E949C06C8
:1019F0008091240290912502019709F0B1C081ECF9
:101A000091E00E945F0780912202909123020E9440
:101A1000330782EA91E00E945F078091240290914F
:101A20002502029799F581EC91E00E945F07809171
:101A30002002909121020E943307A2CE059708F060
:101A40009FCE80E00E949C0683EC91E00E945F079D
:101A500081E00E949C0680912402909125020397C8
:101A600009F081C081EC91E00E945F078091220221
:101A7000909123020E94330782EA91E00E945F075F
:101A80008091240290912502049769F28BE391E002
:101A9000CCCFCE0101960E94C30580E00E949C0637
:101AA0008BE991E00E945F078C8190E00E943307F0
:101AB00082EA91E00E945F078D8190E00E943307E7
:101AC00082EA91E00E945F078E8190E00E943307D6
:101AD00081E00E949C0684EA91E00E945F07809169
:101AE0001F028823D1F18CEA91E00E945F07809168
:101AF0001F02882381F080911D0290911E020E9496
:101B0000330782EA91E00E945F0780911B02909167
:101B10001C020E94330780911F02882309F430CEF3
:101B2000CE0101960E94C3052C8180911D029091E7
:101B30001E022817190609F023CE2D8180911B0261
:101B400090911C022817190609F01ACE8E81811176
:101B500017CE81E08093260213CE80EB91E0C5CFB3
:101B60008BE391E04ECF8BE391E07ECFFB01DC0174
:101B700002C005900D9241505040D8F70895991B2E
:101B800079E004C0991F961708F0961B881F7A9574
:101B9000C9F780950895A1E21A2EAA1BBB1BFD016F
:101BA0000DC0AA1FBB1FEE1FFF1FA217B307E4073C
:101BB000F50720F0A21BB30BE40BF50B661F771F94
:101BC000881F991F1A9469F7609570958095909574
:101BD0009B01AC01BD01CF010895EE0FFF1F0590E1
:101BE000F491E02D09940F931F93CF93DF938230EC
:101BF000910510F482E090E0E091C302F091C402FC
:101C000030E020E0B0E0A0E0309799F421153105F4
:101C100009F44AC0281B390B24303105D8F58A81D4
:101C20009B816115710589F1FB0193838283FE011C
:101C300011C0408151810281138148175907E0F09A
:101C40004817590799F4109761F012960C93129760
:101C500013961C933296CF01DF91CF911F910F9174
:101C600008950093C3021093C402F4CF21153105E7
:101C700051F04217530738F0A901DB019A01BD0169
:101C8000DF01F801C1CFEF01F9CF9093C402809337
:101C9000C302CDCFFE01E20FF31F81939193225037
:101CA000310939832883D7CF2091C1023091C202F4
:101CB000232B41F420910201309103013093C202A1
:101CC0002093C102209100013091010121153105BD
:101CD00041F42DB73EB74091040150910501241BFA
:101CE000350BE091C102F091C202E217F307A0F4B4
:101CF0002E1B3F0B2817390778F0AC014E5F5F4F62
:101D00002417350748F04E0F5F1F5093C2024093CF
:101D1000C102819391939FCFF0E0E0E09CCFCF93FD
:101D2000DF930097E9F0FC01329713821282A091B1
:101D3000C302B091C402ED0130E020E01097A1F49D
:101D400020813181820F931F2091C1023091C20204
:101D50002817390709F061C0F093C202E093C1026D
:101D6000DF91CF910895EA01CE17DF07E8F54A81A8
:101D70005B819E0141155105B1F7E901FB83EA83BF
:101D800049915991C40FD51FEC17FD0761F480816B
:101D900091810296840F951FE9019983888382813E
:101DA00093819B838A83F0E0E0E012968D919C9171
:101DB00013970097B9F52D913C911197CD0102969B
:101DC000820F931F2091C1023091C2022817390758
:101DD00039F6309751F51092C4021092C302B093B5
:101DE000C202A093C102BCCFD383C2834081518180
:101DF000840F951FC817D90761F44E5F5F4F888124
:101E00009981480F591F518340838A819B81938315
:101E100082832115310509F0B0CFF093C402E0931D
:101E2000C3029ECFFD01DC01C0CF13821282D7CF47
:041E3000F894FFCF54
:101E34000000C502800000004000140054000000AF
:101E44000000D603A90319047F03A2038F038003B0
:101E540000000000DF06A1011904CE0142617420D4
:101E640062616F20746875632020202000546174BF
:101E74002062616F207468756320202020004C6FFD
:101E840069205254432100446120646174206261DA
:101E94006F20746875632100446120646174206C50
:101EA40061692067696F212000547574205475742A
:101EB4002054757421212120200042616D204D4F52
:101EC400444520646520746174200054696D653A4A
:101ED40020003A00416C61726D3A20004F4E2000A0
:101EE4004F4646004461742062616F2074687563D4
:101EF400003E005375612074686F69206769616EE4
:021F04000000DB
:00000001FF
