:100000000C946D000C9495000C9495000C94950044
:100010000C9495000C9495000C9495000C9495000C
:100020000C9495000C9495000C9495000C949500FC
:100030000C9495000C9495000C9495000C949500EC
:100040000C942D070C9495000C9495000C9495003D
:100050000C9495000C9495000C9495000C949500CC
:100060000C9477070C94950031323A35373A33388F
:10007000004E6F76203133203230323500000000E0
:1000800000240027002A0000000000250028002B83
:1000900000000000002300260029000404040404DA
:1000A0000404040202020202020303030303030125
:1000B00002040810204080010204081020010204FC
:1000C00008102000000008000201000003040700DF
:1000D0000000000000000000A30811241FBECFEFA5
:1000E000D8E0DEBFCDBF22E0A2EAB1E001C01D92A0
:1000F000A339B207E1F711E0A0E0B1E0E0E9FDE1EA
:1001000002C005900D92A23AB107D9F710E0CDE6F2
:10011000D0E004C02197FE010E94870DCC36D107A4
:10012000C9F70E94C4080C94C60E0C9400000895F0
:100130000895833081F028F4813099F08230A9F05D
:1001400008958730A9F08830C9F08430B1F48091E7
:1001500080008F7D03C0809180008F778093800026
:10016000089584B58F7784BD089584B58F7DFBCFC6
:100170008091B0008F778093B00008958091B00097
:100180008F7DF9CFCF93DF93282F30E0F901ED5326
:10019000FF4F8491F901E155FF4FD491F901E556E4
:1001A000FF4FC491CC23A1F081110E949900EC2F44
:1001B000F0E0EE0FFF1FEF56FF4FA591B491EC91C9
:1001C000ED2381E090E009F480E0DF91CF91089584
:1001D00080E090E0FACF1F93CF93DF93282F30E099
:1001E000F901ED53FF4F8491F901E155FF4FD4918F
:1001F000F901E556FF4FC491CC23A9F0162F8111C8
:100200000E949900EC2FF0E0EE0FFF1FE957FF4F1F
:10021000A591B4918FB7F894EC91111108C0D095C5
:10022000DE23DC938FBFDF91CF911F910895DE2BEA
:10023000F8CFCF93DF9390E0FC01E155FF4F24917D
:1002400085569F4FFC0184918823D1F090E0880F60
:10025000991FFC01E358FF4FA591B491FC01E957A8
:10026000FF4FC591D491623071F49FB7F8943C91DF
:10027000822F809583238C93E8812E2B28839FBF28
:10028000DF91CF9108958FB7F894EC912E2B2C939A
:100290008FBFF6CF3FB7F8948091FA019091FB01A0
:1002A000A091FC01B091FD0126B5A89B05C02F3F90
:1002B00019F00196A11DB11D3FBFBA2FA92F982F8C
:1002C0008827BC01CD01620F711D811D911D42E087
:1002D000660F771F881F991F4A95D1F708958F924F
:1002E0009F92AF92BF92CF92DF92EF92FF924B011B
:1002F0005C010E944A016B017C010E944A016C1959
:100300007D098E099F09683E734081059105A8F318
:1003100021E0821A9108A108B10888EEC80E83E096
:10032000D81EE11CF11C81149104A104B10429F729
:10033000FF90EF90DF90CF90BF90AF909F908F9005
:100340000895AF92BF92CF92DF92EF92FF920F93F8
:100350001F93CF93DF936C017B018B01040F151F5B
:10036000EB015E01AE18BF08C017D10759F06991C3
:10037000D601ED91FC910190F081E02DC601099527
:10038000892B79F7C501DF91CF911F910F91FF90D4
:10039000EF90DF90CF90BF90AF9008950895209197
:1003A000C301260F3327331F21323105ECF420918E
:1003B0004C02FC0190E080E0243069F082E0089576
:1003C000A091C3012191AC014D555E4FA40FB52FF3
:1003D000B11D2C930196861798F38091C301680F85
:1003E0006093C30180E0089581E0089510924C026B
:1003F00081E080934B021092260261E082E10E942C
:10040000EB0061E083E10E94EB00E9EBF0E080812A
:100410008E7F808380818D7F808388E48093B80085
:1004200085E48093BC0008951092050210920402A6
:1004300010925302109275020E94F60187E990E033
:10044000909301028093000288E990E09093FF016D
:100450008093FE010895CF93DF9391E09093A201E2
:100460008823B9F0C091B800D091BA008091BC0047
:100470008A7B8093BC0060E082E10E94EB0060E038
:1004800083E10E94EB000E94F601D093BA00C09372
:10049000B800DF91CF9108958F929F92AF92BF9253
:1004A000CF92DF92EF92FF920F931F93CF93DF9340
:1004B000D0917502D13208F0D7C0182FC0917402C4
:1004C0000E944A016B017C0180914C0281116BC03A
:1004D00082E080934C0210934B028FEF80934A028C
:1004E00010924902D0934802A4E5B2E0E8E2F2E0BB
:1004F00080E0D81391C01092270280912702CC0F80
:10050000C82BC093270280912602813009F088C051
:10051000109226020E944A016B017C018091270201
:100520008093BB0080914E0290914F02A0915002A7
:10053000B0915102892B8A2B8B2BA1F00E944A018A
:1005400000914E0210914F022091500230915102C1
:100550006C197D098E099F090617170728073907A7
:1005600008F442C08091BC0083FDD8CF85EC809315
:10057000BC000E944A016B017C0180914C028230D8
:1005800009F450C080914A028F3F09F46FC08091F6
:100590004A02803209F46CC080914A02803309F427
:1005A00069C084E026C080914E0290914F02A091D4
:1005B0005002B0915102892B8A2B8B2B09F484CFE6
:1005C0000E944A0180904E0290904F02A0905002EB
:1005D000B09051026C197D098E099F098616970605
:1005E000A806B90608F070CF80914D020E942B0238
:1005F00085E0109253021092750210925202DF9120
:10060000CF911F910F91FF90EF90DF90CF90BF900F
:10061000AF909F908F9008959D9191938F5F69CF38
:1006200085EEA5CF80914E0290914F02A09150028D
:10063000B0915102892B8A2B8B2B09F49ECF0E94FB
:100640004A0100914E0210914F02209150023091C8
:1006500051026C197D098E099F0906171707280793
:10066000390708F08ACFC0CF81E0C3CF80E0C1CF87
:1006700082E0BFCF83E0BDCF1F93CF93DF93EA012A
:10068000122FDC0111968D919C91DC01ED91FC9172
:100690000280F381E02D0995C817D90729F4812F2D
:1006A0000E944C0291E0811190E0892FDF91CF915F
:1006B0001F910895CF93DF93EC018B818823A1F0E4
:1006C000888191E0909352028093740210925302B9
:1006D0001092750281E00E944C0291E0811190E03D
:1006E000892FDF91CF9108950E94140281E08B83BE
:1006F000CE010E945A03982F8111E2CFF1CF0895C5
:10070000E091050280910402E81730F4F0E0EA5F1E
:10071000FD4F808190E008958FEF9FEF08959091B5
:100720000502809104022FEF3FEF981748F4E92F5C
:10073000F0E0EA5FFD4F208130E09F5F909305027B
:10074000C90108958091040290910502891B990BBB
:100750000895CF92DF92EF92FF920F931F93CF9362
:10076000DF937C01CB018A0120915202222389F080
:10077000EB016B01C40ED51ECC15DD0569F0699146
:10078000D701ED91FC910190F081E02DC701099511
:10079000F3CF642F0E94CF01C801DF91CF911F9149
:1007A0000F91FF90EF90DF90CF900895CF93DF935C
:1007B0001F92CDB7DEB76983209152022223F9F050
:1007C00020917502203258F021E030E0FC013383A3
:1007D000228390E080E00F90DF91CF910895809187
:1007E0005302E82FF0E0EC5AFD4F998190838F5F20
:1007F000809353028093750281E090E0ECCF61E03A
:10080000CE0101960E94CF01F7CFFC01248131E097
:100810003093520220937402109253021092750288
:100820008485682B86E792E00E94D60381E00C94D1
:100830004C0290E080E008958F929F92AF92BF9219
:100840000F931F93CF93DF93CDB7DEB7A1970FB66A
:10085000F894DEBF0FBECDBF19A2423008F44AE0C3
:100860008E010F5D1F4F842E912CB12CA12CA50160
:1008700094010E94650DE62FB901CA01EA3044F5E2
:10088000E05DD801EE938D01232B242B252B79F7E6
:1008900090E080E0109769F0FD0101900020E9F7F9
:1008A0003197AF014A1B5B0BBD0182E892E00E94C9
:1008B000A101A1960FB6F894DEBF0FBECDBFDF91A8
:1008C000CF911F910F91BF90AF909F908F900895FF
:1008D000E95CD7CFFC0101900020E9F73197AF0127
:1008E000481B590BBC0182E892E00C94A1012F92A5
:1008F0003F924F925F926F927F928F929F92AF92B0
:10090000BF92CF92DF92EF92FF920F931F93CF93FC
:10091000DF935C011B016A01F12CE12CD5011496D7
:100920008D919C9186010E191F098017910708F47B
:100930008C01F501D0810E944A012B013C0180917C
:100940004C02811172C0C02F013208F0C0E2F1E008
:10095000F0934C0221E0C601801B910BE816F906CA
:1009600008F420E020934B028FEF80934A0210920C
:1009700049028C0F80934802A1E0A0932702809146
:100980002702DD0FD82BD0932702809126028130D9
:1009900009F090C0109226020E944A012B013C01EE
:1009A000809127028093BB0080914E0290914F026C
:1009B000A0915002B0915102892B8A2B8B2BA1F070
:1009C0000E944A0120914E0230914F024091500204
:1009D000509151026419750986099709261737073E
:1009E0004807590708F442C08091BC0083FDD8CF66
:1009F000B5ECB093BC000E944A012B013C018091F0
:100A00004C02813009F45AC0809149028C1710F4CD
:100A1000C0914902A8E2B2E0E6E0F2E080E08C1783
:100A200051F19D9191938F5FFACF80914E029091F9
:100A30004F02A0915002B0915102892B8A2B8B2B2F
:100A400009F47DCF0E944A0120914E0230914F025D
:100A50004091500250915102641975098609970915
:100A6000261737074807590708F069CF80914D02CC
:100A70000E942B02C0E010920502C0930402C0172E
:100A8000110609F057C041018E0C9F1CE401CE01F4
:100A9000881999098017910798F5D50111968D91BC
:100AA0009C91DC01ED91FC910284F385E02D099588
:100AB0008993EDCFE5EEE093BC009DCF80914E028F
:100AC00090914F02A0915002B0915102892B8A2B34
:100AD0008B2B09F494CF0E944A0120914E02309151
:100AE0004F024091500250915102641975098609D4
:100AF0009709261737074807590708F080CFB6CF60
:100B0000E00EF11EEC14FD0408F408CF81E0DF9143
:100B1000CF911F910F91FF90EF90DF90CF90BF90FA
:100B2000AF909F908F907F906F905F904F903F908D
:100B30002F90089580E0EBCFEF92FF920F931F93D9
:100B4000CF93DF9300D000D000D01F92CDB7DEB797
:100B50008C011982E0900202F0900302D7011496F2
:100B60008D919C911597892BE9F08C9191E0909350
:100B7000520280937402109253021092750220E088
:100B800041E050E0BE016F5F7F4FC7010E943C0310
:100B9000882341F047E050E0BE016F5F7F4FC701FF
:100BA0000E947704E981EF77FA81FB804D815E81B5
:100BB0008F81282F30E094E0359527959A95E1F7BD
:100BC000922F990F990F291B220F280FD8012C93D0
:100BD000852F90E024E0959587952A95E1F7982F49
:100BE000990F990F891B880F850F11968C93119778
:100BF000642F70E034E0759567953A95E1F7862F9C
:100C0000880F880F681B660F640F12966C931297FB
:100C10004F2D50E064E0559547956A95E1F7842F94
:100C2000880F880F481B440F4F0D13964C93139752
:100C30002F2F30E074E0359527957A95E1F7822FD4
:100C4000880F880F281B220F2F0F14962C931497B0
:100C50008E2F90E0F4E095958795FA95E1F7982F1F
:100C6000990F990F891B880F8E0F15968C93C801C9
:100C700027960FB6F894DEBF0FBECDBFDF91CF91A0
:100C80001F910F91FF90EF9008950F931F93CF93B3
:100C90008C01C62F0E9405046C2F6460C8010E945D
:100CA00005046C2F6B7FC8010E94050483EC90E063
:100CB0000197F1F7CF911F910F9108950F931F9313
:100CC000CF93DF938C01D62FC42F607F642B0E94BB
:100CD000450680E1D89FB00111246C2BC801DF913B
:100CE000CF911F910F910C944506CF93DF93CDB711
:100CF000DEB728970FB6F894DEBF0FBECDBF98E0E1
:100D0000E8E0F1E0DE01119601900D929A95E1F78D
:100D100090918A02981708F48FEF90E0880F991F3E
:100D200021E030E02C0F3D1F820F931FFC016081FA
:100D3000606840E082E892E028960FB6F894DEBF43
:100D40000FBECDBFDF91CF910C945E0640E061E015
:100D500082E892E00E945E068BE39FE10197F1F743
:100D600080918B02882319F080E00C947506089519
:100D700041E00E945E0681E090E0089541E0682F26
:100D800082E892E00E945E0681E090E00895CF92B2
:100D9000DF92EF92FF92CF93DF936C01990FEE08F1
:100DA000FF08F7FE17C08DE20E94BE06EC01662721
:100DB0007727CB016C197D098E099F094AE00E94B3
:100DC0001C048C0F9D1FDF91CF91FF90EF90DF905F
:100DD000CF9008954AE0C701B601DF91CF91FF900F
:100DE000EF90DF90CF900C941C0485ED8093BC00B5
:100DF00080914E0290914F02A0915002B091510209
:100E00000796A11DB11D23E0B695A79597958795E7
:100E10002A95D1F72091BC0024FD03C010924C020A
:100E2000089540914E0250914F026091500270918E
:100E30005102452B462B472B69F30097A105B105BD
:100E400041F02AE22A95F1F700C00197A109B10902
:100E5000E1CF80914D020C942B021F920F920FB69E
:100E60000F9211242F933F938F939F93AF93BF9330
:100E70008091F6019091F701A091F801B091F901EC
:100E80003091F50123E0230F2D3758F50196A11D70
:100E9000B11D2093F5018093F6019093F701A09383
:100EA000F801B093F9018091FA019091FB01A091B2
:100EB000FC01B091FD010196A11DB11D8093FA01C5
:100EC0009093FB01A093FC01B093FD01BF91AF9102
:100ED0009F918F913F912F910F900FBE0F901F9078
:100EE000189526E8230F0296A11DB11DD2CF1F929F
:100EF0000F920FB60F9211242F933F934F935F934E
:100F00006F937F938F939F93AF93BF93EF93FF93D1
:100F10008091B900887F803609F44AC0F0F58832A4
:100F200009F4A7C018F5803109F49BC0B8F48823F0
:100F300009F4F9C0883009F494C0FF91EF91BF9192
:100F4000AF919F918F917F916F915F914F913F9161
:100F50002F910F900FBE0F901F901895883109F4B4
:100F600088C0803251F780934A0214C0803409F45B
:100F70009DC040F48033B9F38833F9F680934A0278
:100F800085ECB0C0803509F485C0883509F496C079
:100F9000883499F60E94F506D0CF883909F48CC0C0
:100FA00038F5883729F050F4883611F0803729F663
:100FB00083E080934C021092E50157C0883809F411
:100FC0007BC0803919F0803809F0B7CF8091E501F6
:100FD000803208F071C0E091E50181E08E0F8093CE
:100FE000E5018091BB00F0E0EB53FE4F80833DC0F4
:100FF000803B39F0E0F4803A09F479C0883A09F08E
:101000009CCF84E080934C021092C4011092C301E3
:10101000E0910002F091010209958091C3018111D4
:101020000FC081E08093C3011092A30109C0803CEE
:1010300009F4A6CF883C09F4A3CF883B09F07DCF03
:10104000E091C40181E08E0F8093C401F0E0ED5582
:10105000FE4F80818093BB009091C4018091C301B9
:1010600029C0809127028093BB0085EC8093BC004F
:1010700064CF9091490280914802981758F5E09109
:10108000490281E08E0F80934902F0E0E85DFD4F58
:101090008081E9CFE091490281E08E0F809349027F
:1010A0008091BB00F0E0E85DFD4F808390914902A4
:1010B000809148029817C8F285E8D8CFE09149029C
:1010C00081E08E0F809349028091BB00F0E0E85DE3
:1010D000FD4F808380914B0281115CCF81E0809332
:1010E000260284EA8093BC0010924C0226CF85EC45
:1010F0008093BC0010924C028091E501803230F464
:10110000E091E501F0E0EB53FE4F10826091E501C4
:1011100070E0E091FE01F091FF0185EC91E009950E
:101120001092E5010ACF10924A0234CFFC0190815F
:1011300090539A3008F090E0818180532AE0929F8A
:10114000800D11240895E6E7F2E01382128288EE02
:1011500093E0A0E0B0E084839583A683B78384E125
:1011600091E091838083E2E8F2E01382128286E2CA
:1011700091E091838083118687E2848380E1828776
:1011800082E0838714860895CF93DF93CDB7DEB7CF
:101190002C970FB6F894DEBF0FBECDBF789484B500
:1011A000826084BD84B5816084BD85B5826085BD63
:1011B00085B5816085BD80916E00816080936E00F1
:1011C00010928100809181008260809381008091E3
:1011D0008100816080938100809180008160809394
:1011E00080008091B10084608093B1008091B00054
:1011F00081608093B00080917A00846080937A004F
:1012000080917A00826080937A0080917A00816078
:1012100080937A0080917A00806880937A0010929F
:10122000C10062E080E00E94190162E081E00E945A
:10123000190162E082E00E94190162E083E00E94ED
:10124000190161E086E00E9419010E9414021092C7
:10125000870280918D02823018F098E09093870287
:1012600080938A0262E370E080E090E00E946F0168
:1012700060918E0282E892E00E94050468EE73E0BD
:1012800080E090E00E946F0160E382E892E00E94BB
:1012900045060BE416E4C8010197F1F760E382E824
:1012A00092E00E944506C8010197F1F760E382E8E9
:1012B00092E00E94450683E592E00197F1F760E233
:1012C00082E892E00E94450660918702606240E0F9
:1012D00082E892E00E945E0684E08093880240E00B
:1012E0006CE082E892E00E945E060E94A60682E020
:1012F0008093890240E066E082E892E00E945E0608
:1013000040E062E082E892E00E945E068BE39FE1AB
:101310000197F1F788E080938E0260E082E892E026
:101320000E9405048091020290910302009711F03F
:101330000E943D0E86E090E00E94A10D8C0188E69F
:10134000F801808386E792E092838183138280E2B2
:1013500090E09583848310930302009302020E941D
:101360001402DD24D394F801D382C8010E945A03E9
:10137000811105C08AE491E00E946A04FFCF1C86B7
:101380008091020290910302FC0124813581232B7C
:1013900089F02081D092520220937402109253025D
:1013A0001092750221E041E050E0BE01645F7F4F82
:1013B0000E943C0341E050E08E010F5F1F4FB801D7
:1013C00080910202909103020E947704898190E04B
:1013D000880F892F881F990B892B09F4A7C04BE030
:1013E00050E061E770E0C8010E943C0DCE010A9612
:1013F0000E949608D82EE981E154E33130F50E2E93
:10140000000CFF0BEA5FF54F0C94870D940B250A37
:10141000250AAF0B250AB20B250A250A250A190A47
:10142000250A250A9D0BAC0BA90B250A250A250ABE
:10143000A60B8A81FF24F394813639F08B8136E044
:10144000F32E8E3611F027E0F22ECE0105960E9483
:101450009608C82E48E050E068E670E0C8010E9497
:101460003C0DC8010E949608B82ECE0104960E9439
:101470009608A82ECE0107960E949608382F86E07F
:10148000F80111928A95E9F72AE0832F622F0E94D2
:10149000450D982F880F890F880F830F8A838A2D17
:1014A0000E94450D982F880F890F880F8A0D8B8316
:1014B0008B2D0E94450D982F880F890F880F8B0D5B
:1014C0008C838C2D0E94450D982F880F890F880FD3
:1014D0008C0D8E838F2D0E94450D982F990F890FAB
:1014E000880FF80EFF828D2D0E94450D982F880FD2
:1014F000890F880F8D0D88878091020290910302D9
:10150000FC01248135812830310580F0208131E0D3
:10151000309352022093740210925302109275027B
:1015200021E048E050E0B8010E943C030E94A6067A
:101530008CE3C82ED12C98E1A92EB12C20E0222ECC
:1015400020E0322E32E0832E912C44244394512CFF
:10155000FF24F39480E00E94C2004091E701509183
:10156000E8016091E9017091EA01892B09F0FDC061
:10157000452B462B472B99F42FB7F8948091F60111
:101580009091F701A091F801B091F9012FBF8093DC
:10159000E7019093E801A093E901B093EA012FB726
:1015A000F8948091F6019091F701A091F801B09123
:1015B000F9012FBF4091E7015091E8016091E901E5
:1015C0007091EA01841B950BA60BB70B813D9740E8
:1015D000A105B10530F18091E601811122C0809111
:1015E000F2019091F301892BE1F47090ED017F24D9
:1015F0007092ED01F092E6010E94A60680E00E9442
:1016000075068EE291E0711002C08CE391E00E94B9
:101610006A0468EE73E080E090E00E946F010E942F
:10162000A60681E00E94C200892BD1F48091F201CC
:101630009091F3018130910509F0FCC08091F00197
:101640009091F1010196B5010E94510D9093F10125
:101650008093F00168EC70E080E090E00E946F0100
:1016600082E00E94C200892BD1F48091F201909116
:10167000F3018130910509F0EDC08091F001909166
:10168000F1014796B5010E94510D9093F1018093AD
:10169000F00168EC70E080E090E00E946F0183E070
:1016A0000E94C200892B91F48091F2019091F30184
:1016B0008130910509F0DEC09092F3018092F20131
:1016C0006CE271E080E090E00E946F018091F40193
:1016D000882309F4F7C080E00E94750684E691E053
:1016E0000E946A0481E00E94750685E791E00E94ED
:1016F0006A0461E086E00E94EB0068EC70E080E044
:1017000090E00E946F0160E086E00E94EB0068ECD0
:1017100070E080E090E00E946F012114310409F430
:1017200019CF0E94000014CF8B8194E0F92E8237EC
:1017300009F48BCE88E0F82E88CE8B81B3E0FB2EA7
:10174000823709F482CEA5E0FA2E7FCEF9E0FF2E93
:101750007CCEEAE0FE2E79CE7BE0F72E76CE6CE0F2
:10176000F62E73CE52E0F52E70CE452B462B472B2E
:1017700009F457CF8091E601811128C02FB7F89462
:101780008091F6019091F701A091F801B091F901D3
:101790002FBF4091E7015091E8016091E9017091FC
:1017A000EA01841B950BA60BB70B883E9340A1055D
:1017B000B10560F48091F401882399F01092F4014E
:1017C00060E086E00E94EB000E94A6061092E7010E
:1017D0001092E8011092E9011092EA011092E601DC
:1017E00020CF0E94A6068091F2019091F30100970C
:1017F000A9F45092F3014092F2018091000190917E
:1018000001019093F1018093F0018091EB0190919F
:10181000EC019093EF018093EE01D8CF019729F46A
:101820009092F3018092F201D1CF1092F3011092C5
:10183000F201CCCF029709F00DCF8091EE0190918B
:10184000EF010196B6010E94510D9093EF01809334
:10185000EE0100CF029709F01CCF8091EE0190912C
:10186000EF01CB96B6010E94510D9093EF0180934A
:10187000EE010FCF029709F023CF8091F0019091F4
:10188000F10190930101809300018091EE0190910C
:10189000EF019093EC018093EB01F092ED01109237
:1018A000F3011092F2010E94A60683E591E00E94E6
:1018B0006A0468EE73E080E090E00E946F010E948D
:1018C000A606FECE8091F2019091F301009709F4F3
:1018D00043C0039708F0C2C080E00E94750682E909
:1018E00091E00E946A0481E00E9475068091F201F5
:1018F0009091F301019709F0B9C08FE991E00E943E
:101900006A046090F0017090F101FAE06F167104C2
:101910001CF480E30E94BE06C3010E94C7068AE34E
:101920000E94BE068091F2019091F301029709F0A6
:10193000A0C08FE991E00E946A046090EE0170906F
:10194000EF012AE0621671041CF480E30E94BE06D7
:10195000C3010E94C70682C0C8010E949C0580E0A6
:101960000E94750685E891E00E946A048C818A30A5
:1019700018F480E30E94BE066C8170E090E080E085
:101980004AE00E941C048AE30E94BE068D818A30D0
:1019900018F480E30E94BE066D8170E090E080E064
:1019A0004AE00E941C048AE30E94BE068E818A30AF
:1019B00018F480E30E94BE066E8170E090E080E043
:1019C0004AE00E941C0481E00E9475068091ED01AE
:1019D000882309F448C088E391E00E946A048CE8F7
:1019E00091E00E946A0460900001709001018AE019
:1019F000681671041CF480E30E94BE06C3010E94B5
:101A0000C7068AE30E94BE066090EB017090EC016D
:101A1000EAE06E1671041CF480E30E94BE06C30166
:101A20000E94C7068091ED018823C1F0C8010E9481
:101A30009C052C81809100019091010128171906C5
:101A400069F42D818091EB019091EC012817190622
:101A500029F48E81811102C0F092F40160E570E0FA
:101A600080E090E058CE86E491E0B7CF83E791E044
:101A700046CF83E791E05FCFFB01DC0102C0059018
:101A80000D9241505040D8F70895991B79E004C059
:101A9000991F961708F0961B881F7A95C9F78095AD
:101AA000089597FB072E16F4009407D077FD09D010
:101AB0000E948D0D07FC05D03EF4909581959F4FB7
:101AC0000895709561957F4F0895A1E21A2EAA1B83
:101AD000BB1BFD010DC0AA1FBB1FEE1FFF1FA217DE
:101AE000B307E407F50720F0A21BB30BE40BF50BDB
:101AF000661F771F881F991F1A9469F76095709564
:101B0000809590959B01AC01BD01CF010895EE0F2A
:101B1000FF1F0590F491E02D0994AA1BBB1B51E116
:101B200007C0AA1FBB1FA617B70710F0A61BB70B4D
:101B3000881F991F5A95A9F780959095BC01CD01F2
:101B400008950F931F93CF93DF938230910510F484
:101B500082E090E0E0919102F091920230E020E08A
:101B6000B0E0A0E0309799F42115310509F44AC09E
:101B7000281B390B24303105D8F58A819B816115EA
:101B8000710589F1FB0193838283FE0111C04081BD
:101B900051810281138148175907E0F0481759070E
:101BA00099F4109761F012960C93129713961C9368
:101BB0003296CF01DF91CF911F910F91089500933D
:101BC000910210939202F4CF2115310551F0421782
:101BD000530738F0A901DB019A01BD01DF01F801CB
:101BE000C1CFEF01F9CF9093920280939102CDCFB4
:101BF000FE01E20FF31F8193919322503109398343
:101C00002883D7CF20918F0230919002232B41F46B
:101C100020910401309105013093900220938F02AE
:101C200020910201309103012115310541F42DB7B6
:101C30003EB74091060150910701241B350BE091FE
:101C40008F02F0919002E217F307A0F42E1B3F0BD6
:101C50002817390778F0AC014E5F5F4F241735071E
:101C600048F04E0F5F1F5093900240938F02819374
:101C700091939FCFF0E0E0E09CCFCF93DF9300976C
:101C8000E9F0FC01329713821282A0919102B09187
:101C90009202ED0130E020E01097A1F42081318123
:101CA000820F931F20918F023091900228173907DD
:101CB00009F061C0F0939002E0938F02DF91CF9121
:101CC0000895EA01CE17DF07E8F54A815B819E019E
:101CD00041155105B1F7E901FB83EA834991599117
:101CE000C40FD51FEC17FD0761F480819181029626
:101CF000840F951FE90199838883828193819B8357
:101D00008A83F0E0E0E012968D919C911397009702
:101D1000B9F52D913C911197CD010296820F931F39
:101D200020918F02309190022817390739F63097A9
:101D300051F51092920210929102B0939002A093EA
:101D40008F02BCCFD383C28340815181840F951F02
:101D5000C817D90761F44E5F5F4F88819981480F9A
:101D6000591F518340838A819B81938382832115EC
:101D7000310509F0B0CFF0939202E09391029ECF2B
:101D8000FD01DC01C0CF13821282D7CFF894FFCFC0
:101D90000600000093028000000040001400540080
:101DA00000000000D603A90319047F03A2038F03D8
:101DB000800300000000B806A1011904CE014261B1
:101DC0006F20746875633A204F4E200042616F2087
:101DD000746875633A204F4646004C6F6920525430
:101DE0004321004461206C75752062616F20746826
:101DF0007563210044454E2047494F20524F4921E9
:101E0000212120200042616D204D4F444520646512
:101E1000207461740054696D653A20002048656E35
:101E20003A004341492042414F2054485543003E27
:021E30000000B0
:00000001FF
