:100000000C9463000C948B000C948B000C948B006C
:100010000C948B000C948B000C948B000C948B0034
:100020000C948B000C948B000C948B000C948B0024
:100030000C948B000C948B000C948B000C948B0014
:100040000C94FB050C948B000C948B000C948B008F
:100050000C948B000C948B000C948B000C948B00F4
:100060000C9445060C948B0031333A34333A3130DA
:100070000044656320323520323032350000000004
:1000800000250028002B00040404040404040402D6
:100090000202020202030303030303010204081025
:1000A00020408001020408102001020408102000F2
:1000B0000000080002010000030407000000000027
:1000C00000000000640711241FBECFEFD8E0DEBFA0
:1000D000CDBF22E0AEE4B1E001C01D92A433B2076F
:1000E000E1F711E0A0E0B1E0E2EAF7E102C005903B
:1000F0000D92AE34B107D9F710E0C3E6D0E004C0EA
:100100002197FE010E94A40AC236D107C9F70E94B6
:1001100085070C94CF0B0C9400000895089590E08F
:10012000FC01E155FF4F2491FC01E556FF4F34914E
:10013000FC01E957FF4FE491EE23C9F0222339F087
:10014000233001F1A8F4213019F1223029F1F0E037
:10015000EE0FFF1FE358FF4FA591B4918FB7F894AE
:10016000EC91611126C030953E233C938FBF0895DA
:100170002730A9F02830C9F0243049F78091800059
:100180008F7D03C0809180008F7780938000DFCFC8
:1001900084B58F7784BDDBCF84B58F7DFBCF809115
:1001A000B0008F778093B000D2CF8091B0008F7D68
:1001B000F9CF3E2BDACF3FB7F89480919D01909113
:1001C0009E01A0919F01B091A00126B5A89B05C0FA
:1001D0002F3F19F00196A11DB11D3FBFBA2FA92FC6
:1001E000982F8827BC01CD01620F711D811D911DC3
:1001F00042E0660F771F881F991F4A95D1F708952F
:100200008F929F92AF92BF92CF92DF92EF92FF9226
:100210004B015C010E94DB006B017C010E94DB0052
:100220006C197D098E099F09683E7340810591050F
:10023000A8F321E0821A9108A108B10888EEC80E3F
:1002400083E0D81EE11CF11C81149104A104B104C7
:1002500029F7FF90EF90DF90CF90BF90AF909F90E5
:100260008F900895AF92BF92CF92DF92EF92FF925C
:100270000F931F93CF93DF936C017B018B01040FCE
:10028000151FEB015E01AE18BF08C017D10759F06A
:100290006991D601ED91FC910190F081E02DC601AC
:1002A0000995892B79F7C501DF91CF911F910F91A6
:1002B000FF90EF90DF90CF90BF90AF90089508959A
:1002C000FC01908190539A3008F090E08181805336
:1002D0002AE0929F800D1124089520916F01260F2E
:1002E0003327331F21323105ECF42091ED01FC015D
:1002F00090E080E0243069F082E00895A0916F01E1
:100300002191AC01415B5E4FA40FB52FB11D2C9321
:100310000196861798F380916F01680F60936F01C3
:1003200080E0089581E008951092ED0181E08093CE
:10033000EC011092C70161E082E10E948F0061E050
:1003400083E10E948F00E9EBF0E080818E7F808363
:1003500080818D7F808388E48093B80085E48093DA
:10036000BC0008951092A6011092A5011092F4010C
:10037000109216020E9494018DE890E09093A401DF
:100380008093A3018EE890E09093A2018093A10155
:100390000895CF93DF9391E090934E018823B9F0B5
:1003A000C091B800D091BA008091BC008A7B809344
:1003B000BC0060E082E10E948F0060E083E10E9467
:1003C0008F000E949401D093BA00C093B800DF91CF
:1003D000CF9108958F929F92AF92BF92CF92DF926A
:1003E000EF92FF920F931F93CF93DF93D09116025A
:1003F000D13208F0D7C0182FC09115020E94DB003F
:100400006B017C018091ED0181116BC082E08093D2
:10041000ED011093EC018FEF8093EB011092EA0154
:10042000D093E901A5EFB1E0E9ECF1E080E0D81369
:1004300091C01092C8018091C801CC0FC82BC09305
:10044000C8018091C701813009F088C01092C701AE
:100450000E94DB006B017C018091C8018093BB008E
:100460008091EF019091F001A091F101B091F20122
:10047000892B8A2B8B2BA1F00E94DB000091EF01CE
:100480001091F0012091F1013091F2016C197D0978
:100490008E099F09061717072807390708F442C075
:1004A0008091BC0083FDD8CF85EC8093BC000E9476
:1004B000DB006B017C018091ED01823009F450C0BA
:1004C0008091EB018F3F09F46FC08091EB01803286
:1004D00009F46CC08091EB01803309F469C084E0B9
:1004E00026C08091EF019091F001A091F101B091AF
:1004F000F201892B8A2B8B2B09F484CF0E94DB001D
:100500008090EF019090F001A090F101B090F20185
:100510006C197D098E099F0986169706A806B906EB
:1005200008F070CF8091EE010E94C90185E0109221
:10053000F401109216021092F301DF91CF911F91F6
:100540000F91FF90EF90DF90CF90BF90AF909F9072
:100550008F9008959D9191938F5F69CF85EEA5CF80
:100560008091EF019091F001A091F101B091F20121
:10057000892B8A2B8B2B09F49ECF0E94DB000091E4
:10058000EF011091F0012091F1013091F2016C190D
:100590007D098E099F09061717072807390708F0F4
:1005A0008ACFC0CF81E0C3CF80E0C1CF82E0BFCF90
:1005B00083E0BDCF1F93CF93DF93EA01122FDC01BD
:1005C00011968D919C91DC01ED91FC910280F3815B
:1005D000E02D0995C817D90729F4812F0E94EA0157
:1005E00091E0811190E0892FDF91CF911F910895C3
:1005F000CF93DF93EC018B818823A1F0888191E078
:100600009093F301809315021092F4011092160258
:1006100081E00E94EA0191E0811190E0892FDF9151
:10062000CF9108950E94B20181E08B83CE010E9498
:10063000F802982F8111E2CFF1CF0895E091A60141
:100640008091A501E81730F4F0E0E955FE4F808174
:1006500090E008958FEF9FEF08959091A60180910B
:10066000A5012FEF3FEF981748F4E92FF0E0E95587
:10067000FE4F208130E09F5F9093A601C90108954D
:100680008091A5019091A601891B990B0895CF92A5
:10069000DF92EF92FF920F931F93CF93DF937C0132
:1006A000CB018A012091F301222389F0EB016B0138
:1006B000C40ED51ECC15DD0569F06991D701ED9109
:1006C000FC910190F081E02DC7010995F3CF642FD3
:1006D0000E946D01C801DF91CF911F910F91FF9092
:1006E000EF90DF90CF900895CF93DF931F92CDB717
:1006F000DEB769832091F3012223F9F020911602DD
:10070000203258F021E030E0FC013383228390E076
:1007100080E00F90DF91CF9108958091F401E82F50
:10072000F0E0EB50FE4F998190838F5F8093F4014E
:100730008093160281E090E0ECCF61E0CE0101965B
:100740000E946D01F7CFFC01248131E03093F30169
:10075000209315021092F401109216028485682BE2
:1007600087E192E00E94740381E00C94EA0190E03A
:1007700080E008958F929F92AF92BF920F931F9344
:10078000CF93DF93CDB7DEB7A1970FB6F894DEBF56
:100790000FBECDBF19A2423008F44AE08E010F5DB2
:1007A0001F4F842E912CB12CA12CA50194010E94E5
:1007B000820AE62FB901CA01EA3044F5E05DD801AA
:1007C000EE938D01232B242B252B79F790E080E0ED
:1007D000109769F0FD0101900020E9F73197AF0112
:1007E0004A1B5B0BBD0183E292E00E943201A1969D
:1007F0000FB6F894DEBF0FBECDBFDF91CF911F9132
:100800000F91BF90AF909F908F900895E95CD7CFE4
:10081000FC0101900020E9F73197AF01481B590B0B
:10082000BC0183E292E00C9432012F923F924F92EE
:100830005F926F927F928F929F92AF92BF92CF9270
:10084000DF92EF92FF920F931F93CF93DF935C01A0
:100850001B016A01F12CE12CD50114968D919C911C
:1008600086010E191F098017910708F48C01F50104
:10087000D0810E94DB002B013C018091ED018111B0
:1008800072C0C02F013208F0C0E2F1E0F093ED0138
:1008900021E0C601801B910BE816F90608F420E060
:1008A0002093EC018FEF8093EB011092EA018C0F03
:1008B0008093E901A1E0A093C8018091C801DD0FF8
:1008C000D82BD093C8018091C701813009F090C026
:1008D0001092C7010E94DB002B013C018091C801EE
:1008E0008093BB008091EF019091F001A091F10104
:1008F000B091F201892B8A2B8B2BA1F00E94DB0097
:100900002091EF013091F0014091F1015091F201FD
:100910006419750986099709261737074807590783
:1009200008F442C08091BC0083FDD8CFB5ECB093F1
:10093000BC000E94DB002B013C018091ED01813065
:1009400009F45AC08091EA018C1710F4C091EA01B1
:10095000A9ECB1E0E7EAF1E080E08C1751F19D915C
:1009600091938F5FFACF8091EF019091F001A09168
:10097000F101B091F201892B8A2B8B2B09F47DCFE9
:100980000E94DB002091EF013091F0014091F101D4
:100990005091F201641975098609970926173707DE
:1009A0004807590708F069CF8091EE010E94C901FC
:1009B000C0E01092A601C093A501C017110609F06E
:1009C00057C041018E0C9F1CE401CE018819990982
:1009D0008017910798F5D50111968D919C91DC01B6
:1009E000ED91FC910284F385E02D09958993EDCF7B
:1009F000E5EEE093BC009DCF8091EF019091F00176
:100A0000A091F101B091F201892B8A2B8B2B09F473
:100A100094CF0E94DB002091EF013091F0014091D2
:100A2000F1015091F2016419750986099709261799
:100A300037074807590708F080CFB6CFE00EF11E00
:100A4000EC14FD0408F408CF81E0DF91CF911F91F1
:100A50000F91FF90EF90DF90CF90BF90AF909F905D
:100A60008F907F906F905F904F903F902F90089560
:100A700080E0EBCF682F70E090E080E04AE00C94DB
:100A8000BA030F931F93CF938C01C62F0E94A30329
:100A90006C2F6460C8010E94A3036C2F6B7FC80198
:100AA0000E94A30383EC90E00197F1F7CF911F918F
:100AB0000F9108950F931F93CF93DF938C01D62F3F
:100AC000C42F607F642B0E94410580E1D89FB00154
:100AD00011246C2BC801DF91CF911F910F910C94C1
:100AE0004105CF93DF93CDB7DEB728970FB6F894C3
:100AF000DEBF0FBECDBF98E0E6E0F1E0DE0111966B
:100B000001900D929A95E1F790912B02981708F4B5
:100B10008FEF90E0880F991F21E030E02C0F3D1FF0
:100B2000820F931FFC016081606840E083E292E0E5
:100B300028960FB6F894DEBF0FBECDBFDF91CF91E0
:100B40000C945A0540E061E083E292E00E945A056D
:100B50008BE39FE10197F1F780912C02882319F034
:100B600080E00C947105089541E00E945A0581E0EF
:100B700090E0089541E0682F83E292E00E945A05D8
:100B800081E090E0089585ED8093BC008091EF01B5
:100B90009091F001A091F101B091F2010796A11D91
:100BA000B11D23E0B695A795979587952A95D1F71E
:100BB0002091BC0024FD03C01092ED0108954091E6
:100BC000EF015091F0016091F1017091F201452B1C
:100BD000462B472B69F30097A105B10541F02AE2A6
:100BE0002A95F1F700C00197A109B109E1CF8091E1
:100BF000EE010C94C9011F920F920FB60F921124AF
:100C00002F933F938F939F93AF93BF9380919901BD
:100C100090919A01A0919B01B0919C013091980113
:100C200023E0230F2D3758F50196A11DB11D209308
:100C300098018093990190939A01A0939B01B0939E
:100C40009C0180919D0190919E01A0919F01B09186
:100C5000A0010196A11DB11D80939D0190939E015D
:100C6000A0939F01B093A001BF91AF919F918F91ED
:100C70003F912F910F900FBE0F901F90189526E86F
:100C8000230F0296A11DB11DD2CF1F920F920FB656
:100C90000F9211242F933F934F935F936F937F9302
:100CA0008F939F93AF93BF93EF93FF938091B9007E
:100CB000887F803609F44AC0F0F5883209F4A7C06D
:100CC00018F5803109F49BC0B8F4882309F4F9C001
:100CD000883009F494C0FF91EF91BF91AF919F913B
:100CE0008F917F916F915F914F913F912F910F90D5
:100CF0000FBE0F901F901895883109F488C080327C
:100D000051F78093EB0114C0803409F49DC040F486
:100D10008033B9F38833F9F68093EB0185ECB0C0EA
:100D2000803509F485C0883509F496C0883499F671
:100D30000E94C305D0CF883909F48CC038F58837B4
:100D400029F050F4883611F0803729F683E080933B
:100D5000ED011092910157C0883809F47BC08039A9
:100D600019F0803809F0B7CF80919101803208F0F6
:100D700071C0E091910181E08E0F8093910180918B
:100D8000BB00F0E0EF58FE4F80833DC0803B39F060
:100D9000E0F4803A09F479C0883A09F09CCF84E005
:100DA0008093ED011092700110926F01E091A30108
:100DB000F091A401099580916F0181110FC081E02C
:100DC00080936F0110924F0109C0803C09F4A6CFB7
:100DD000883C09F4A3CF883B09F07DCFE0917001F6
:100DE00081E08E0F80937001F0E0E15BFE4F808127
:100DF0008093BB009091700180916F0129C0809118
:100E0000C8018093BB0085EC8093BC0064CF9091B7
:100E1000EA018091E901981758F5E091EA0181E033
:100E20008E0F8093EA01F0E0E753FE4F8081E9CF17
:100E3000E091EA0181E08E0F8093EA018091BB008E
:100E4000F0E0E753FE4F80839091EA018091E90141
:100E50009817C8F285E8D8CFE091EA0181E08E0FBB
:100E60008093EA018091BB00F0E0E753FE4F80835E
:100E70008091EC0181115CCF81E08093C70184EA0D
:100E80008093BC001092ED0126CF85EC8093BC00CE
:100E90001092ED0180919101803230F4E091910146
:100EA000F0E0EF58FE4F10826091910170E0E09108
:100EB000A101F091A20181E791E0099510929101C1
:100EC0000ACF1092EB0134CFE7E1F2E013821282F5
:100ED00088EE93E0A0E0B0E084839583A683B78397
:100EE00082E191E091838083E3E2F2E01382128257
:100EF00084E291E091838083118687E2848380E19C
:100F0000828782E0838714860895CF93DF93CDB7DD
:100F1000DEB72C970FB6F894DEBF0FBECDBF789426
:100F200084B5826084BD84B5816084BD85B58260EE
:100F300085BD85B5816085BD80916E00816080939F
:100F40006E00109281008091810082608093810008
:100F50008091810081608093810080918000816018
:100F6000809380008091B10084608093B100809173
:100F7000B00081608093B00080917A00846080939B
:100F80007A0080917A00826080937A0080917A0062
:100F9000816080937A0080917A00806880937A00E3
:100FA0001092C1000E94B2011092280280912E027C
:100FB000823018F098E09093280280932B0262E32D
:100FC00070E080E090E00E94000160912F0283E2D7
:100FD00092E00E94A30368EE73E080E090E00E943C
:100FE000000160E383E292E00E944105BBE4EB2E46
:100FF000B6E4FB2EC7010197F1F760E383E292E0CC
:101000000E944105C7010197F1F760E383E292E096
:101010000E94410583E592E00197F1F760E283E2E7
:1010200092E00E94410560912802606240E083E204
:1010300092E00E945A0584E08093290240E06CE02F
:1010400083E292E00E945A050E94A20582E080930A
:101050002A0240E066E083E292E00E945A0540E006
:1010600062E083E292E00E945A058BE39FE10197E0
:10107000F1F788E080932F0260E083E292E00E9423
:10108000A3038091920190919301009711F00E9427
:10109000460B86E090E00E94AA0A7C0188E6F701F0
:1010A000808387E192E092838183138280E290E0E3
:1010B00095838483F0929301E09292010E94B201A1
:1010C00001E0F7010383C7010E94F8021C868091AA
:1010D000920190919301FC0124813581232B89F0A9
:1010E00020810093F301209315021092F4011092D5
:1010F000160221E041E050E0BE01645F7F4F0E9494
:10110000DA0241E050E09E012F5F3F4F5901B901E3
:1011100080919201909193010E941504898190E041
:10112000880F892F881F990B892B09F4A8C00E946A
:10113000A2058CE291E00E9408044BE050E061E7D8
:1011400070E0C5010E946D0ACE010A960E946001FE
:10115000082FE981E154E331D8F40E2E000CFF0B87
:10116000EC54F74F0C94A40A570AC808C8086B0A35
:10117000C808C708C808C808C8084B0AC808C8086B
:101180005E0A690A670AC808C808C808650A12E042
:10119000CE0105960E946001F82E48E050E068E616
:1011A00070E0C5010E946D0AC5010E946001E82E31
:1011B000CE0104960E946001D82ECE0107960E94AF
:1011C0006001382F86E0F50111928A95E9F72AE04F
:1011D000832F622F0E94760A982F880F890F880F1D
:1011E000830F8A838D2D0E94760A982F880F890F8E
:1011F000880F8D0D8B838E2D0E94760A982F880F75
:10120000890F880F8E0D8C838F2D0E94760A982F60
:10121000880F890F880F8F0D8E83812F0E94760A89
:10122000982F990F890F880F180F1F83802F0E9406
:10123000760A982F880F890F880F800F88878091F2
:10124000920190919301FC01248135812830310570
:1012500080F0208131E03093F30120931502109249
:10126000F4011092160221E048E050E0B5010E941E
:10127000DA026CED75E080E090E00E9400010E94CF
:10128000A205F0E08F2EF0E09F2E2FB7F89480910A
:10129000990190919A01A0919B01B0919C012FBF5F
:1012A0004091940150919501609196017091970140
:1012B0008C019D01041B150B260B370BB901A801EE
:1012C000483E53406105710508F4DEC080939401E7
:1012D00090939501A0939601B09397011982009184
:1012E000920110919301F80184819581892BC9F0B5
:1012F000808191E09093F301809315021092F401A4
:101300001092160220E041E050E0B501C8010E94B1
:10131000DA02882331F047E050E0B501C8010E94AD
:10132000150429812F77822F90E034E095958795D9
:101330003A95E1F7982F990F990FD82ED91ADD0C0D
:10134000D20E2A81822F90E044E0959587954A95A8
:10135000E1F7982F990F990FC82EC91ACC0CC20E1D
:101360002B81822F90E054E0959587955A95E1F76F
:10137000982F990F990F782E791A770C720E2D816C
:10138000822F90E064E0959587956A95E1F7982F14
:10139000990F990FE82EE91AEE0CE20E2E81822F9A
:1013A00090E074E0959587957A95E1F7982F990FDD
:1013B000990FF82EF91AFF0CF20E6F81862F90E02C
:1013C000E4E095958795EA95E1F7982F990F990FA5
:1013D000082F091B000F060F10E080E00E94710526
:1013E0008CE391E00E940804F9E0F71518F080E31F
:1013F0000E94BA05872D0E943A058AE30E94BA0529
:1014000029E02C1518F080E30E94BA058C2D0E946B
:101410003A058AE30E94BA0539E03D1518F080E3E9
:101420000E94BA058D2D0E943A0583E491E00E9446
:10143000080481E00E94710586E491E00E9408049E
:1014400089E08E1518F080E30E94BA058E2D0E9467
:101450003A058FE20E94BA0599E09F1518F080E3E3
:101460000E94BA058F2D0E943A058FE20E94BA05AC
:101470000053184FB80190E080E04AE00E94BA03A0
:1014800084E491E00E9408048114910409F4FDCEE3
:101490000E940000FACE8A8111E0813609F478CEEC
:1014A0008B8117E08E3609F073CE16E071CE8B81FA
:1014B00018E0823709F06CCE14E06ACE8B8115E01B
:1014C000823709F065CE13E063CE19E061CE1AE0F1
:1014D0005FCE1BE05DCE1CE05BCEFB01DC0102C0F9
:1014E00005900D9241505040D8F70895991B79E02E
:1014F00004C0991F961708F0961B881F7A95C9F7A4
:1015000080950895A1E21A2EAA1BBB1BFD010DC0F8
:10151000AA1FBB1FEE1FFF1FA217B307E407F507A3
:1015200020F0A21BB30BE40BF50B661F771F881F7F
:10153000991F1A9469F760957095809590959B0115
:10154000AC01BD01CF010895EE0FFF1F0590F4918E
:10155000E02D09940F931F93CF93DF938230910571
:1015600010F482E090E0E0913202F091330230E03A
:1015700020E0B0E0A0E0309799F42115310509F49E
:101580004AC0281B390B24303105D8F58A819B814C
:101590006115710589F1FB0193838283FE0111C0FE
:1015A000408151810281138148175907E0F04817A3
:1015B000590799F4109761F012960C9312971396AD
:1015C0001C933296CF01DF91CF911F910F91089517
:1015D0000093320210933302F4CF2115310551F0FC
:1015E0004217530738F0A901DB019A01BD01DF0161
:1015F000F801C1CFEF01F9CF90933302809332020B
:10160000CDCFFE01E20FF31F819391932250310958
:1016100039832883D7CF2091300230913102232B98
:1016200041F4209102013091030130933102209363
:10163000300220910001309101012115310541F462
:101640002DB73EB74091040150910501241B350B85
:10165000E0913002F0913102E217F307A0F42E1B63
:101660003F0B2817390778F0AC014E5F5F4F241706
:10167000350748F04E0F5F1F509331024093300200
:10168000819391939FCFF0E0E0E09CCFCF93DF93E5
:101690000097E9F0FC01329713821282A091320286
:1016A000B0913302ED0130E020E01097A1F42081E9
:1016B0003181820F931F209130023091310228171F
:1016C000390709F061C0F0933102E0933002DF91F5
:1016D000CF910895EA01CE17DF07E8F54A815B81D3
:1016E0009E0141155105B1F7E901FB83EA83499158
:1016F0005991C40FD51FEC17FD0761F480819181CA
:101700000296840F951FE9019983888382819381D2
:101710009B838A83F0E0E0E012968D919C91139771
:101720000097B9F52D913C911197CD010296820F4A
:10173000931F20913002309131022817390739F672
:10174000309751F51092330210923202B093310269
:10175000A0933002BCCFD383C28340815181840FD8
:10176000951FC817D90761F44E5F5F4F8881998133
:10177000480F591F518340838A819B8193838283C1
:101780002115310509F0B0CFF0933302E093320216
:101790009ECFFD01DC01C0CF13821282D7CFF89417
:0217A000FFCF79
:1017A20000003402800000004000140054000000D9
:1017B200000074034703B7031D0340032D031E03F8
:1017C20000000000B4053201B7035F0144616E6797
:1017D20020636169205254432E2E2E0054696D6598
:0E17E2003A2000202000446174653A20000087
:00000001FF
